{
  "_format": "hh-sol-artifact-1",
  "contractName": "Celengan",
  "sourceName": "contracts/Celengan.sol",
  "abi": [
    {
      "anonymous": false,
      "inputs": [
        {
          "indexed": true,
          "internalType": "address",
          "name": "user",
          "type": "address"
        },
        {
          "indexed": false,
          "internalType": "uint256",
          "name": "amount",
          "type": "uint256"
        },
        {
          "indexed": false,
          "internalType": "uint256",
          "name": "unlockTime",
          "type": "uint256"
        }
      ],
      "name": "NabungSukses",
      "type": "event"
    },
    {
      "anonymous": false,
      "inputs": [
        {
          "indexed": true,
          "internalType": "address",
          "name": "user",
          "type": "address"
        },
        {
          "indexed": false,
          "internalType": "uint256",
          "name": "amount",
          "type": "uint256"
        }
      ],
      "name": "TarikSukses",
      "type": "event"
    },
    {
      "inputs": [],
      "name": "ambilDuit",
      "outputs": [],
      "stateMutability": "nonpayable",
      "type": "function"
    },
    {
      "inputs": [],
      "name": "cekSisaWaktu",
      "outputs": [
        {
          "internalType": "uint256",
          "name": "",
          "type": "uint256"
        }
      ],
      "stateMutability": "view",
      "type": "function"
    },
    {
      "inputs": [
        {
          "internalType": "address",
          "name": "",
          "type": "address"
        }
      ],
      "name": "deadline",
      "outputs": [
        {
          "internalType": "uint256",
          "name": "",
          "type": "uint256"
        }
      ],
      "stateMutability": "view",
      "type": "function"
    },
    {
      "inputs": [
        {
          "internalType": "uint256",
          "name": "_waktuKunciDetik",
          "type": "uint256"
        }
      ],
      "name": "nabung",
      "outputs": [],
      "stateMutability": "payable",
      "type": "function"
    },
    {
      "inputs": [
        {
          "internalType": "address",
          "name": "",
          "type": "address"
        }
      ],
      "name": "saldo",
      "outputs": [
        {
          "internalType": "uint256",
          "name": "",
          "type": "uint256"
        }
      ],
      "stateMutability": "view",
      "type": "function"
    }
  ],
  "bytecode": "0x6080604052348015600f57600080fd5b506108be8061001f6000396000f3fe60806040526004361061004a5760003560e01c806321c4cb471461004f578063422fb525146100665780635403b394146100a3578063d39a0ca3146100e0578063da5bb9d3146100fc575b600080fd5b34801561005b57600080fd5b50610064610127565b005b34801561007257600080fd5b5061008d600480360381019061008891906105b9565b61030b565b60405161009a91906105ff565b60405180910390f35b3480156100af57600080fd5b506100ca60048036038101906100c591906105b9565b610323565b6040516100d791906105ff565b60405180910390f35b6100fa60048036038101906100f59190610646565b61033b565b005b34801561010857600080fd5b506101116104b4565b60405161011e91906105ff565b60405180910390f35b60008060003373ffffffffffffffffffffffffffffffffffffffff1673ffffffffffffffffffffffffffffffffffffffff168152602001908152602001600020549050600081116101ad576040517f08c379a00000000000000000000000000000000000000000000000000000000081526004016101a4906106d0565b60405180910390fd5b600160003373ffffffffffffffffffffffffffffffffffffffff1673ffffffffffffffffffffffffffffffffffffffff1681526020019081526020016000205442101561022f576040517f08c379a00000000000000000000000000000000000000000000000000000000081526004016102269061073c565b60405180910390fd5b60008060003373ffffffffffffffffffffffffffffffffffffffff1673ffffffffffffffffffffffffffffffffffffffff168152602001908152602001600020819055503373ffffffffffffffffffffffffffffffffffffffff166108fc829081150290604051600060405180830381858888f193505050501580156102b9573d6000803e3d6000fd5b503373ffffffffffffffffffffffffffffffffffffffff167f2cf4bb98cc954880e2bb1b2115ac0f92336df1de6f4e410a6045a047ed1e19b98260405161030091906105ff565b60405180910390a250565b60006020528060005260406000206000915090505481565b60016020528060005260406000206000915090505481565b6000341161037e576040517f08c379a0000000000000000000000000000000000000000000000000000000008152600401610375906107a8565b60405180910390fd5b346000803373ffffffffffffffffffffffffffffffffffffffff1673ffffffffffffffffffffffffffffffffffffffff16815260200190815260200160002060008282546103cc91906107f7565b9250508190555080426103df91906107f7565b600160003373ffffffffffffffffffffffffffffffffffffffff1673ffffffffffffffffffffffffffffffffffffffff168152602001908152602001600020819055503373ffffffffffffffffffffffffffffffffffffffff167fa289ee40d625b256b2245f46c8360e6b559f8261e10002ffb74ea9162753597634600160003373ffffffffffffffffffffffffffffffffffffffff1673ffffffffffffffffffffffffffffffffffffffff168152602001908152602001600020546040516104a992919061082b565b60405180910390a250565b6000600160003373ffffffffffffffffffffffffffffffffffffffff1673ffffffffffffffffffffffffffffffffffffffff1681526020019081526020016000205442106105055760009050610553565b42600160003373ffffffffffffffffffffffffffffffffffffffff1673ffffffffffffffffffffffffffffffffffffffff168152602001908152602001600020546105509190610854565b90505b90565b600080fd5b600073ffffffffffffffffffffffffffffffffffffffff82169050919050565b60006105868261055b565b9050919050565b6105968161057b565b81146105a157600080fd5b50565b6000813590506105b38161058d565b92915050565b6000602082840312156105cf576105ce610556565b5b60006105dd848285016105a4565b91505092915050565b6000819050919050565b6105f9816105e6565b82525050565b600060208201905061061460008301846105f0565b92915050565b610623816105e6565b811461062e57600080fd5b50565b6000813590506106408161061a565b92915050565b60006020828403121561065c5761065b610556565b5b600061066a84828501610631565b91505092915050565b600082825260208201905092915050565b7f47616b2070756e79612064756974206c75000000000000000000000000000000600082015250565b60006106ba601183610673565b91506106c582610684565b602082019050919050565b600060208201905081810360008301526106e9816106ad565b9050919050565b7f43656c656e67616e206d617369682064696b756e6369212053616261722e0000600082015250565b6000610726601e83610673565b9150610731826106f0565b602082019050919050565b6000602082019050818103600083015261075581610719565b9050919050565b7f4d696e696d616c203120706572616b20646f6e67000000000000000000000000600082015250565b6000610792601483610673565b915061079d8261075c565b602082019050919050565b600060208201905081810360008301526107c181610785565b9050919050565b7f4e487b7100000000000000000000000000000000000000000000000000000000600052601160045260246000fd5b6000610802826105e6565b915061080d836105e6565b9250828201905080821115610825576108246107c8565b5b92915050565b600060408201905061084060008301856105f0565b61084d60208301846105f0565b9392505050565b600061085f826105e6565b915061086a836105e6565b9250828203905081811115610882576108816107c8565b5b9291505056fea264697066735822122066bfdcfb07d17d9ae3e350ef53642db0fbcb940a3a2225ba5c6f82836e3c560864736f6c634300081c0033",
  "linkReferences": {},
  "deployedLinkReferences": {}
}